:020000040000FA
:020000000C28CA
:040002000034003492
:08000800F0000308F10071088B
:080010008300F00E700E0900E0
:08001800850183160313051096
:1000200006138312031307309F008312031306176E
:100030000130482038203508B60022203030B60084
:1000400022201828061705143608B40005100613D8
:1000500054200830B300B40C031C312806170514D3
:100060003328061305105420B30B2B28061708005D
:10007000861B3828542000000830B3000000000020
:10008000860DB50C00005420B30B3E28B50C0800BB
:10009000B0003230B100A630B200B20B4D28B10B27
:1000A0004B28B00B492808002030B200B20B56286C
:0200B000080046
:02400E00103F61
:00000001FF
