:020000040000FA
:020000000C28CA
:040002000034003492
:08000800F0000308F10071088B
:080010008300F00E700E0900E0
:08001800850183160313051096
:1000200006138312031307309F008312031306176E
:10003000013095208A200130952032303502031995
:100040002A203130350203193620333035020319A6
:10005000422018280030B70037084E20B600742020
:10006000B70A0D303702031D2C2808000030B700F6
:1000700037086120B6007420B70A11303702031D1B
:10008000382808000030B70037085D20B60074201B
:10009000B70A02303702031D442808008207713472
:1000A000623457344C3431343034303439342134C0
:1000B000243470346E340A340800820730340A3431
:1000C0000800820731343234333434343034383435
:1000D00035343934303438343234333436343734D8
:1000E000383434340A340800061705143608B400CE
:1000F00005100613A1200830B300B40C031C83289C
:1001000006170514852806130510A120B30B7D28BA
:1001100006170800861B8A28A6200830B300060DA3
:10012000B50CA620B30B8F280800B0003230B10008
:10013000A630B200B20B9A28B10B9828B00B9628C3
:1001400008002030B200B20BA32808002130B20012
:06015000B20BA828080014
:02400E00103F61
:00000001FF
