:020000040000FA
:020000000C28CA
:040002000034003492
:08000800F0000308F10071088B
:080010008300F00E700E0900E0
:08001800850183160313051096
:1000200006138312031307309F008312031306176E
:100030001930B600051002302220051402302220AB
:1000400033201A28B0003230B100A630B200B20B13
:100050002728B10B2528B00B232808002030B20038
:10006000B20B3028080006173608B40006132E20FD
:100070000830B300B40C031C3F28061740280613B1
:0A0080002E20B30B3A2806170800E3
:02400E00103F61
:00000001FF
